:020000040800F2
:10000000C807002439030008731F00086B1F00088D
:100010006F1F0008D10400084D2F000800000000E9
:100020000000000000000000000000009120000817
:10003000F104000800000000751F00088D21000871
:100040005303000853030008530300085303000838
:100050005303000853030008530300085303000828
:1000600053030008F5040008530300085303000875
:100070005303000853030008530300085303000808
:1000800053030008530300085303000853030008F8
:1000900053030008530300085303000853030008E8
:1000A00053030008530300085303000853030008D8
:1000B00053030008530300085303000853030008C8
:1000C00053030008530300085303000853030008B8
:1000D00053030008FD2E00085303000853030008D3
:1000E00053030008530300080000000053030008F6
:1000F0005303000853030008530300085303000888
:100100005303000853030008530300085303000877
:100110005303000853030008530300085303000867
:100120005303000853030008530300085303000857
:100130005303000853030008530300085303000847
:1001400000000000000000000000000000000000AF
:100150005303000853030008530300085303000827
:100160005303000853030008530300085303000817
:100170005303000853030008530300080000000065
:1001800053030008530300085303000853030008F7
:1001900053030008530300085303000853030008E7
:1001A00053030008530300085303000853030008D7
:1001B00053030008530300085303000853030008C7
:1001C00053030008530300085303000853030008B7
:1001D00053030008530300085303000853030008A7
:1001E0005303000853030008530300085303000897
:1001F0005303000853030008530300085303000887
:100200005303000853030008530300085303000876
:100210005303000853030008530300085303000866
:1002200053030008530300085303000800000000B4
:1002300053030008530300080000000053030008A4
:100240005303000853030008530300085303000836
:100250005303000853030008530300085303000826
:100260005303000853030008530300085303000816
:100270005303000853030008530300080000000064
:1002800053030008000000005303000800000000B2
:10029000000000005303000800F002F800F03CF8F2
:1002A0000AA090E8000C82448344AAF10107DA45D1
:1002B00001D100F031F8AFF2090EBAE80F0013F0E7
:1002C000010F18BFFB1A43F001031847F02E00007E
:1002D000102F0000103A24BF78C878C1FAD852070E
:1002E00024BF30C830C144BF04680C6070470000B0
:1002F0000023002400250026103A28BF78C1FBD82F
:10030000520728BF30C148BF0B6070471FB502F0CD
:1003100017FF1FBD10B510BD00F0A8F81146FFF77C
:10032000F5FF02F0C5FE00F0C6F803B4FFF7F2FFD8
:1003300003BC02F029FE0000094880470948004735
:10034000FEE7FEE7FEE7FEE7FEE7FEE7FEE7FEE785
:10035000FEE7FEE704480549054A064B70470000E2
:100360009521000899020008C8010024C80700244C
:10037000C8030024C803002453EA020C00F069807B
:100380002DE9F04B4FF00006002B1FBFB3FA83F5A9
:1003900003FA05F424FA05F65E4012BF1643B2FADA
:1003A00082F502FA05F4C5F120051EBF22FA05FC0C
:1003B00044EA0C04203556EA044C4FEA144418BFB2
:1003C000641C4FF000084FF00009904271EB030CE1
:1003D00039D3002919BFB1FA81F701FA07F6B0FA4B
:1003E00080F700FA07F6C7F120071EBF20FA07FCC6
:1003F00046EA0C062037B6FBF4FCA7EB0507103FD6
:1004000007F01F0BCBF120060CFA0BFB2CFA06F6BB
:1004100044BFB3460026202FA4BF5E464FF0000B1A
:100420005BEA060C08BF4FF0010B19EB0B09ABFBA5
:10043000027C48EB0608C01B06FB02CC0BFB03CC7E
:1004400071EB0C01C1E70B46024641464846BDE848
:10045000F08B13B54FF000004FF00001AFF30080B8
:10046000BDE81C407047704770477047754600F004
:100470002BF8AE4605006946534620F00700854636
:1004800018B020B5FFF766FFBDE820404FF000062A
:100490004FF000074FF000084FF0000B21F007016C
:1004A000AC46ACE8C009ACE8C009ACE8C009ACE8AF
:1004B000C0098D46704710B50446AFF30080204652
:1004C000BDE81040FFF731BF0048704768010024C5
:1004D00000BFFEE710B501F09DFD01F04DFD0348A2
:1004E000006840F004000149086010BD9CEF00E086
:1004F0007047000010B5082000F0A2F8082001495C
:10050000086010BD8800005810B504460CB90120E1
:1005100010BD94F83500022803D0802060650120CA
:10052000F6E734492068884205D333492068884279
:1005300001D8012000E00020C0B1042084F835007B
:100540002C49206888420AD32B492068884206D863
:100550002068006820F001002168086048E02068F9
:10056000006820F001002168086041E02068006810
:1005700020F00E00216808601E49206888420AD3D6
:100580001D492068884206D82068006820F00100D4
:100590002168086005E02068006820F001002168FB
:1005A0000860206E006820F48070216E086094F866
:1005B0005C100120884011490860D4E91910486096
:1005C000E06E40B1E06E006820F48070E16E08607B
:1005D000D4E91C10486000BF002084F8340000BF3C
:1005E000012084F83500206D10B12046216D884728
:1005F00000208DE710000240B80402400454025865
:100600000348006840F0010001490860704700009D
:100610002004005810B50446142002F0C1FC082C38
:1006200008D10821044800F03FF918B90121034816
:1006300000F042F910BD0000001C025800040258EE
:1006400010B5044604480068204020B10248046008
:100650002046FFF7DFFF10BD88000058F8B50246BE
:100660000B460021002600240020824D00BFFCE044
:10067000012707FA01F61F6807EA0604B4427CD195
:100680005F68022F02D05F68122F1AD14FEAD10C97
:1006900002F1200757F82C004F074FEAD76C0F27BD
:1006A00007FA0CF7B8434FEA417C4FEADC6C1F694C
:1006B00007FA0CF738434FEAD10C02F1200747F84C
:1006C0002C0010684FEA410C032707FA0CF7B843D7
:1006D0001F7907F003074FEA410C07FA0CF738437C
:1006E00010605F68012F08D05F68022F05D05F6837
:1006F000112F02D05F68122F17D190684FEA410C7A
:10070000032707FA0CF7B8434FEA410CDF6807FAF2
:100710000CF738439060506801278F40B8431F7929
:10072000C7F300178F4038435060D0684FEA410C40
:10073000032707FA0CF7B8434FEA410C9F6807FA02
:100740000CF73843D0605F6807F08057B7F1805FDF
:1007500095D100BF484F3F6847F00207DFF818C146
:10076000CCF8007067463F6807F00207009700BFAB
:1007700000BF424F4FEA910C00E075E057F82C00A3
:100780008F074FEA177C0F2707FA0CF7B8433C4F47
:10079000BA4201D100272DE03A4FBA4201D10127D8
:1007A00028E0394FBA4201D1022723E0374FBA423D
:1007B00001D103271EE0364FBA4201D1042719E0C8
:1007C000344FBA4201D1052714E0334FBA4201D168
:1007D00006270FE0314FBA4201D107270AE0304F18
:1007E000BA4201D1082705E02E4FBA4201D10927AC
:1007F00000E00A274FEA817C4FEA1C7C07FA0CF7DD
:1008000038431E4F4FEA910C47F82C002868A0434C
:100810005F6807F48037B7F5803F00D12043286038
:100820006868A0435F6807F40037B7F5003F00D160
:10083000204368604FF0B0473868A0435F6807F412
:100840008017B7F5801F00D120434FF0B0473860C4
:100850007868A0435F6807F40017B7F5001F00D160
:1008600020434FF0B0477860491C1029FFF400AFD7
:10087000F8BD000080000058F444025808040058F5
:10088000000002580004025800080258000C0258E8
:10089000001002580014025800180258001C025898
:1008A0000020025800240258024613690B400BB185
:1008B000012000E00020704742694A4042617047D1
:1008C0000AB1018300E041837047000001480068DD
:1008D00070470000140000240348006803490978A9
:1008E0000844014908607047140000241C000024DB
:1008F00010B5032000F07EF80F2000F007F808B1D3
:10090000012010BD00F028F80020FAE770B5044679
:100910000E4800784FF47A71B1FBF0F00C49096889
:10092000B1FBF0F5284601F0DFF808B1012070BDF9
:10093000102C07D200222146501E00F01EF8054858
:10094000046001E00120F2E70020F0E71C00002431
:1009500000000024180000247047014608460028C3
:1009600009DB00F01F0301229A4043099B0003F1B9
:10097000E023C3F8002100BF70472DE9F05F8046F7
:100980000D46164602F0E4FA074639462A46334633
:1009900001F00700C0F1070ABAF1040F02D94FF0C5
:1009A000040A01E0C0F1070AD14600F1040ABAF1D5
:1009B000070F02D24FF0000A01E0A0F1030AD4466B
:1009C0004FF0010A0AFA09FAAAF1010A0AEA020A30
:1009D0000AFA0CFA4FF0010B0BFA0CFBABF1010B0E
:1009E0000BEA030B4AEA0B042146404602F0B8FA30
:1009F000BDE8F09F00BF00F00702064B19684FF6F4
:100A0000FF031940044B0B4343EA0221014B1960D9
:100A100000BF70470CED00E00000FA0510B500F0D3
:100A2000CBFB0949096801F470614FF4807292FAB6
:100A3000A2F2B2FA82F2D140044A515CC8400449A1
:100A400008600846006810BD184402587A31000852
:100A50000000002410B500F067FB0749096801F0A9
:100A60007001102292FAA2F2B2FA82F2D140034A45
:100A7000515CC84010BD0000204402587A31000883
:100A800070B5014600220120002300249FED811A49
:100A9000B0EE410A9FED7F1AF0EE410A7E4D2D68BF
:100AA00005F003027C4D2D68C5F305307A4D2D1DF0
:100AB0002D6805F01003784D14352D68C5F3CC056D
:100AC00015FB03F501EE105AB8EE411AB0EE410ADB
:100AD00022B1012A4DD0022A7DD169E06E4D283D18
:100AE0002D68C5F340152DB36B4D283D2D68C5F31A
:100AF000C1066A4D25FA06F4B4FBF0F501EE105A72
:100B0000F8EE411A9FED661A80EE012A624D10350B
:100B10002D68C5F3080501EE105AB8EE411A32EE01
:100B2000011AB7EE002A31EE021A21EE811AF0EE18
:100B3000410A1DE0594DB5FBF0F501EE105AF8EEF3
:100B4000411A9FED571A80EE012A534D10352D683A
:100B5000C5F3080501EE105AB8EE411A32EE011A3B
:100B6000B7EE002A31EE021A21EE811AF0EE410AA8
:100B70005EE04C4DB5FBF0F501EE105AB8EE412A9F
:100B80009FED471AC0EE011A434D10352D68C5F38D
:100B9000080501EE105AB8EE411A31EE811AF7EE4F
:100BA000001A31EE211A22EE011AF0EE410A3FE05E
:100BB0003D4DB5FBF0F501EE105AF8EE411A9FEDF0
:100BC000381A80EE012A344D10352D68C5F308051A
:100BD00001EE105A00E00CE0B8EE411A32EE011AB4
:100BE000B7EE002A31EE021A21EE811AF0EE410A28
:100BF0001EE02C4DB5FBF0F501EE105AB8EE412A7F
:100C00009FED271AC0EE011A234D10352D68C5F34C
:100C1000080501EE105AB8EE411A31EE811AF7EECE
:100C2000001A31EE211A22EE011AF0EE410A00BF3D
:100C300000BF194D10352D68C5F346256D1C01EE1A
:100C4000105AB8EE411AC0EE811ABCEEE11A81EDDD
:100C5000001A114D10352D68C5F306456D1C01EEC7
:100C6000105AB8EE411AC0EE811ABCEEE11A81EDBD
:100C7000011A094D10352D68C5F306656D1C01EE8E
:100C8000105AB8EE411AC0EE811ABCEEE11A81ED9D
:100C9000021A70BD00000000284402580090D003E2
:100CA0000000004600093D0040787D0170B5014616
:100CB00000220120002300249FED811AB0EE410A9A
:100CC0009FED7F1AF0EE410A7E4D2D6805F003027C
:100CD0007C4D2D68C5F305507A4D2D1D2D6805F40A
:100CE0008073784D1C352D68C5F3CC0515FB03F5D5
:100CF00001EE105AB8EE411AB0EE410A22B1012AB3
:100D00004DD0022A7DD169E06E4D283D2D68C5F396
:100D100040152DB36B4D283D2D68C5F3C1066A4DB6
:100D200025FA06F4B4FBF0F501EE105AF8EE411A7C
:100D30009FED661A80EE012A624D18352D68C5F3C5
:100D4000080501EE105AB8EE411A32EE011AB7EE5C
:100D5000002A31EE021A21EE811AF0EE410A1DE05E
:100D6000594DB5FBF0F501EE105AF8EE411A9FED22
:100D7000571A80EE012A534D18352D68C5F3080522
:100D800001EE105AB8EE411A32EE011AB7EE002AFF
:100D900031EE021A21EE811AF0EE410A5EE04C4D6E
:100DA000B5FBF0F501EE105AB8EE412A9FED471A57
:100DB000C0EE011A434D18352D68C5F3080501EE44
:100DC000105AB8EE411A31EE811AF7EE001A31EEE0
:100DD000211A22EE011AF0EE410A3FE03D4DB5FB2B
:100DE000F0F501EE105AF8EE411A9FED381A80EE38
:100DF000012A344D18352D68C5F3080501EE105A47
:100E000000E00CE0B8EE411A32EE011AB7EE002A0B
:100E100031EE021A21EE811AF0EE410A1EE02C4D4D
:100E2000B5FBF0F501EE105AB8EE412A9FED271AF6
:100E3000C0EE011A234D18352D68C5F3080501EEE3
:100E4000105AB8EE411A31EE811AF7EE001A31EE5F
:100E5000211A22EE011AF0EE410A00BF00BF194D1F
:100E600018352D68C5F346256D1C01EE105AB8EEF5
:100E7000411AC0EE811ABCEEE11A81ED001A114D43
:100E800018352D68C5F306456D1C01EE105AB8EEF5
:100E9000411AC0EE811ABCEEE11A81ED011A094D2A
:100EA00018352D68C5F306656D1C01EE105AB8EEB5
:100EB000411AC0EE811ABCEEE11A81ED021A70BD32
:100EC00000000000284402580090D00300000046B3
:100ED00000093D0040787D0170B504460D460026AE
:100EE0008D48006800F00700A8420ED28A480068CA
:100EF00020F007002843884908600846006800F091
:100F00000700A84201D0012070BD207800F0020047
:100F1000022807D18148006820F00F00E1680843EB
:100F20007E490860207800F00100002851D07B48FD
:100F3000006820F47060A168084378490860606820
:100F4000022807D1754818380068C0F34040F8B946
:100F50000120D9E76068032807D170481838006875
:100F6000C0F34060A0B90120CEE76068012807D136
:100F70006A4818380068C0F3002048B90120C3E768
:100F8000664818380068C0F3800008B90120BBE744
:100F900062480838006820F00700616808435F492C
:100FA00008390860FFF792FC06466068022811D1F4
:100FB00008E0FFF78BFC801B41F28831884201D9A1
:100FC0000320A1E755480838006800F038001028D1
:100FD000EFD13AE06068032811D108E0FFF776FC12
:100FE000801B41F28831884201D903208CE74B48AD
:100FF0000838006800F038001828EFD125E0606854
:10100000012811D108E0FFF761FC801B41F2883113
:10101000884201D9032077E740480838006800F08B
:1010200038000828EFD110E008E0FFF74FFC801BE4
:1010300041F28831884201D9032065E737480838F2
:10104000006800F038000028EFD13348006800F055
:101050000700A8420ED93048006820F00700284356
:101060002D4908600846006800F00700A84201D03A
:10107000012049E7207800F00400042807D1274820
:10108000006820F070002169084324490860207836
:1010900000F00800082809D12048001D006820F051
:1010A0007000616908431D49091D0860207800F03F
:1010B0001000102809D11948001D006820F4E060D4
:1010C000A16908431549091D0860207800F0200037
:1010D000202809D111480830006820F07000E1692B
:1010E00008430E490831086000F066F80B490968AA
:1010F00001F470614FF4807292FAA2F2B2FA82F2B5
:10110000D140074A515CC840064908600F20FFF7EC
:10111000FDFB0020F8E600000020005218440258B1
:101120007A3100080000002410B5FFF777FC094968
:10113000096801F00F01012292FAA2F2B2FA82F2DA
:10114000D140054A515CC84004490860084600681F
:1011500010BD0000184402587A3100080400002431
:1011600010B5FFF7E1FF0749096801F0700110228F
:1011700092FAA2F2B2FA82F2D140034A515CC8401C
:1011800010BD00001C4402587A31000810B5FFF76A
:10119000CBFF0749096801F4E0614FF4807292FACD
:1011A000A2F2B2FA82F2D140024A515CC84010BDAC
:1011B0001C4402587A31000870B5012500EE905A9F
:1011C0000022012100230024DFED861AB0EE610A1F
:1011D000DFED841AB0EE611A0020834D2D6805F012
:1011E000380535B1082D15D0102D15D0182D7CD10E
:1011F00014E07D4D103D2D68C5F3401545B17A4D85
:10120000103D2D68C5F3C106784D25FA06F000E0C3
:101210007648E5E07648E3E07648E1E0724D18353F
:101220002D6805F00302704D18352D68C5F30511C2
:101230006D4D1C352D6805F001036B4D24352D686F
:10124000C5F3CC0515FB03F501EE905AF8EE611AD3
:10125000B0EE610A22B1012A4FD0022A7DD16BE0A3
:10126000614D103D2D68C5F340152DB35E4D103D09
:101270002D68C5F3C1065D4D25FA06F4B4FBF1F502
:1012800001EE905AB8EE612ADFED5B1AC0EE212A1A
:10129000554D20352D68C5F3080501EE905AF8EE3E
:1012A000611A72EEA11AF7EE002A71EEA21A62EE2E
:1012B000211AB0EE611A1FE04C4DB5FBF1F501EEBD
:1012C000905AB8EE612ADFED4C1AC0EE212A464D45
:1012D00020352D68C5F3080501EE905AF8EE611A25
:1012E00072EEA11AF7EE002A00E077E071EEA21A82
:1012F00062EE211AB0EE611A5EE03D4DB5FBF1F5EC
:1013000001EE905AB8EE612ADFED3B1AC0EE212AB9
:10131000354D20352D68C5F3080501EE905AF8EEDD
:10132000611A72EEA11AF7EE002A71EEA21A62EEAD
:10133000211AB0EE611A3FE02E4DB5FBF1F501EE3A
:10134000905AB8EE612ADFED2C1AC0EE212A264D04
:1013500020352D68C5F3080500E00EE001EE905A37
:10136000F8EE611A72EEA11AF7EE002A71EEA21AD7
:1013700062EE211AB0EE611A1EE01D4DB5FBF1F5CB
:1013800001EE905AF8EE612ADFED1B1A80EE212A59
:10139000154D20352D68C5F3080501EE905AF8EE7D
:1013A000611A72EE211AB7EE002A71EE821A62EE0D
:1013B000A11AB0EE611A00BF00BF0B4D20352D6899
:1013C000C5F346256D1C00EE905AF8EE601A81EECA
:1013D000212AFCEEC21A11EE900A01E0044800BF77
:1013E00000BF70BD00000000104402580090D00300
:1013F00000093D0040787D010000004670B50446BC
:101400000025207800F00100002872D0F94800681B
:1014100000F0380010280CD0F648006800F03800C2
:10142000182812D1F3481830006800F00300022891
:101430000BD1F04810380068C0F3404000286DD050
:10144000606800286AD1012070BD00BF6068B0F5F7
:10145000803F08D1E7481038006840F48030E54903
:10146000103908602EE0606868B9E24810380068FA
:1014700020F48030DF49103908600846006820F405
:10148000802008601EE06068B0F5A02F0DD1D9481B
:101490001038006840F48020D649103908600846AA
:1014A000006840F4803008600CE0D24810380068D2
:1014B00020F48030CF49103908600846006820F4D5
:1014C0008020086000BF6068A0B1FFF7FFF9054603
:1014D00008E0FFF7FBF9401B41F28831884201D94F
:1014E0000320B1E7C34810380068C0F3404000282B
:1014F000EFD013E0FFF7EAF9054608E0FFF7E6F959
:10150000401B41F28831884201D903209CE7B94849
:1015100010380068C0F340400028EFD1207800F078
:101520000200022847D1B348006800F0380058B1E3
:10153000B048006800F0380018283ED1AD48183097
:10154000006800F00300B8BBAA4810380068C0F378
:10155000800018B1E06808B9012075E7A548103887
:10156000006820F01900E1680843A24910390860BA
:10157000FFF7ACF9054606E0FFF7A8F9401B022883
:1015800001D9032060E79B4810380068C0F3800051
:101590000028F1D097480C38006820F47C304FF4D4
:1015A0007C3292FAA2F2B2FA82F2216991400843A7
:1015B00090490C3908604AE0FFE7E06868B38D485D
:1015C0001038006820F01900E16808438949103993
:1015D0000860FFF77BF9054606E0FFF777F9401B47
:1015E000022801D903202FE7824810380068C0F391
:1015F00080000028F1D07F480C38006820F47C304F
:101600004FF47C3292FAA2F2B2FA82F2216991404E
:10161000084378490C39086019E0764810380068AA
:1016200020F00100734910390860FFF74FF90546B3
:1016300006E0FFF74BF9401B022801D9032003E71E
:101640006C4810380068C0F380000028F1D1207881
:1016500000F01000102877D16648006800F03800CC
:1016600008280CD06348006800F03800182823D1FF
:1016700060481830006800F0030001281CD15D4864
:1016800010380068C0F3002020B1E069802801D044
:101690000120D9E657480C38006820F0F8404FF098
:1016A000F84292FAA2F2B2FA82F2216A9140084319
:1016B00050490C39086047E0E06958B34D4810388C
:1016C000006840F080004B4910390860FFF7FEF8D1
:1016D000054606E0FFF7FAF8401B022801D903206F
:1016E000B2E6444810380068C0F300200028F1D06A
:1016F00040480C38006820F0F8404FF0F84292FA69
:10170000A2F2B2FA82F2216A9140084339490C39B7
:10171000086019E037481038006820F0800035492B
:1017200010390860FFF7D2F8054606E0FFF7CEF85B
:10173000401B022801D9032086E62E481038006895
:10174000C0F300200028F1D1207800F0080008281C
:1017500036D16069D0B127486430006840F001009C
:10176000244964310860FFF7B1F8054606E0FFF749
:10177000ADF8401B022801D9032065E61D486430FE
:101780000068C0F340000028F1D019E01948643027
:10179000006820F00100174964310860FFF796F8EF
:1017A000054606E0FFF792F8401B022801D9032006
:1017B0004AE6104864300068C0F340000028F1D1C8
:1017C000207800F02000202834D1A069D8B1094841
:1017D0001038006840F48050064910390860FFF75F
:1017E00075F8054608E0FFF771F8401B022803D999
:1017F000032029E610440258AF480068C0F3403087
:101800000028F0D016E0AC48006820F48050AA49C7
:101810000860FFF75BF8054606E0FFF757F8401B46
:10182000022801D903200FE6A3480068C0F3403026
:101830000028F2D1207800F0040004287DD19F48D0
:10184000006840F480709D490860FFF73FF8054646
:1018500006E0FFF73BF8401B642801D90320F3E5BD
:101860009648006800F480700028F2D000BFA0689D
:10187000012808D190487030006840F001008E497E
:10188000703108602DE0A06868B98B48703000683E
:1018900020F001008849703108600846006820F097
:1018A000040008601DE0A06805280DD18248703052
:1018B000006840F004008049703108600846006804
:1018C00040F0010008600CE07B487030006820F0B8
:1018D00001007949703108600846006820F0040072
:1018E000086000BFA068A0B1FEF7F0FF054608E061
:1018F000FEF7ECFF401B41F28831884201D90320FA
:10190000A2E56D4870300068C0F340000028EFD0B9
:1019100013E0FEF7DBFF054608E0FEF7D7FF401BAC
:1019200041F28831884201D903208DE56248703048
:101930000068C0F340000028EFD1606A00287CD026
:101940005D481030006800F03800182876D0606AD2
:10195000022874D15848006820F080705649086009
:10196000FEF7B4FF054606E0FEF7B0FF401B022875
:1019700001D9032068E550480068C0F340600028A2
:10198000F2D100BFD4E90A1041EA00104A492831D7
:10199000096840F2F332914308434749283108600F
:1019A000208E401EC0F30800616B491E4FF47E423A
:1019B00002EA41210843218F491ED20102EA014176
:1019C00008433C21095D491E120202EA01610843F5
:1019D00039493031086000BF081D00684FF6F871C2
:1019E00088434FF6F87292FAA2F2B2FA82F2A16C30
:1019F000914008433049343108602F482C3000684A
:101A000020F00C00216C08432B492C31086008465B
:101A1000006820F00200616C084327492C310860FF
:101A20000846006840F4803008600846006840F4CA
:101A3000003008600846006802E03BE038E01FE044
:101A400040F4802008600846006840F0010008600B
:101A50001948006840F0807017490860FEF736FFAB
:101A6000054606E0FEF732FF401B022801D903209D
:101A7000EAE411480068C0F340600028F2D019E0A1
:101A80000D48006820F080700B490860FEF71EFFCB
:101A9000054606E0FEF71AFF401B022801D9032085
:101AA000D2E405480068C0F340600028F2D101E0AC
:101AB0000120C9E40020C7E400440258004802584D
:101AC000042808D14FF0E021096941F004014FF0EA
:101AD000E022116107E04FF0E021096921F00401E3
:101AE0004FF0E0221161704770B504462546681E2C
:101AF000B0F1807F01D301200FE0681E4FF0E0219C
:101B000048610F214FF0FF3001F02AFA00204FF01A
:101B1000E021886107200861002070BD7047704790
:101B200001460022002391F8792091F87A3042EAA8
:101B3000030070472DE9F04104462068C56920681C
:101B400007682068866805F00F08B8F1000F0DD10E
:101B500005F0200050B107F0200010B906F08050C9
:101B600020B1204600F03BFCBDE8F081B8F1000F49
:101B700072D05D48304018B907F4907000287AD0D0
:101B800005F0010048B107F4807030B101202168F0
:101B90000862E06F40F00100E06705F0020048B124
:101BA00006F0010030B1022021680862E06F40F0C9
:101BB0000400E06705F0040048B106F0010030B110
:101BC000042021680862E06F40F00200E06705F041
:101BD000080078B107F0200028B906F0805010B94D
:101BE00006F0010030B1082021680862E06F40F083
:101BF0000800E067E06F70B305F0200040B107F027
:101C0000200010B906F0805010B1204600F0E7FB2C
:101C1000E06F00F0080020B92068806800F0400004
:101C200018B3204600F0BBFB2068806800F040003D
:101C3000B8B12068806820F0400021688860606F3B
:101C400058B12A48616F0865606FFEF75DFC10B1FE
:101C5000606F016D88470DE00DE02046FFF75FFFE4
:101C600008E02046FFF75BFF04E02046FFF757FF40
:101C70000020E06778E705F4801078B106F4800072
:101C800060B14FF4801021680862202084F8790048
:101C900084F87A002046FFF741FF65E705F08000F1
:101CA00048B107F0800010B906F4000018B12046D2
:101CB00001F0ACF858E705F0400030B107F0400003
:101CC00018B1204600F07BFB4EE705F4000040B160
:101CD00007F0804028B12068006820F0804021682B
:101CE000086000BF40E700000100001087230008E3
:101CF00010B504460CB9012010BDA06900B100E088
:101D000000BF94F8790028B9002084F878002046B4
:101D100000F02AF8242084F879002068006820F078
:101D2000010021680860204600F09EFB012800D1D8
:101D3000E2E7606B10B1204600F076FA2068406858
:101D400020F49040216848602068806820F02A00D4
:101D5000216888602068006840F001002168086000
:101D6000204600F0D6FAC7E710B586B004462149F0
:101D7000206888423BD100BF1F48006840F0010046
:101D80001D4908600846006800F00100009000BF8F
:101D900000BF00BF18481030006840F0100016491E
:101DA000103108600846006800F01000009000BF85
:101DB00000BF4FF4007001900220029001200390B8
:101DC000022004900720059001A90C48FEF746FC6C
:101DD0004FF48060019001A90848FEF73FFC2520E0
:101DE000FEF7BBFD032211462520FEF7C6FD06B017
:101DF00010BD000000100140E044025800000258ED
:101E000010B5034693F87A00202867D101B10AB9CA
:101E1000012010BD00BF93F87800012801D10220F5
:101E2000F7E7012083F8780000BF5966A3F868201F
:101E3000A3F86A2000BF9868B0F5805F0AD11869DE
:101E400020B940F2FF10A3F86C001CE0FF20A3F8BB
:101E50006C0018E0986848B9186918B9FF20A3F811
:101E60006C0010E07F20A3F86C000CE09868B0F1E3
:101E7000805F08D1186918B97F20A3F86C0002E0D0
:101E80003F20A3F86C0000BF0020D867222083F811
:101E90007A0000BF002083F8780000BF18688068CF
:101EA00040F001001C68A0601868006800F0005055
:101EB00060B11868006840F480701C682060186881
:101EC000806840F080501C68A06005E018680068D9
:101ED00040F490701C68206000209AE7022098E788
:101EE0001D4A0168914236D11C49098801F400411C
:101EF00089BB1A49098801F4804171B118490978F0
:101F00000A2903D00021154A118024E013490988C9
:101F100041F40041114A11801DE0114909780D2951
:101F200006D10E49098841F480410C4A118012E023
:101F30000B490978094A1288C2F30D02094B9954DA
:101F400006490988491C054A118011460988C72994
:101F500001DD0021118070470010014010000024B5
:101F60001200002420000024704700BFFEE700BFDD
:101F7000FEE770477047000010B50023234C236034
:101F800000BF00BF00BFBFF34F8F00BF00BF00BF47
:101F9000231F1868C0F34E3100BFC0F3C90200BF51
:101FA00043F6E07303EA41134FF0404404EA8274BD
:101FB0002343174C236000BF00BF131EA2F1010290
:101FC000EED10B1EA1F10101E7D100BF00BF00BFA0
:101FD000BFF34F8F00BF00BF00BF0C4B703B1B68AF
:101FE00043F48033094C703C236000BF00BF00BF46
:101FF000BFF34F8F00BF00BF00BF00BF00BF00BFD7
:10200000BFF36F8F00BF00BF00BF10BD84ED00E0C5
:1020100060EF00E000BF00BF00BFBFF34F8F00BF05
:1020200000BF00BF00BF00BF00BFBFF36F8F00BF86
:1020300000BF00BF00201449086000BF00BF00BF00
:10204000BFF34F8F00BF00BF00BF00BF00BF00BF86
:10205000BFF36F8F00BF00BF00BF0C48006840F4A3
:1020600000300A49086000BF00BF00BFBFF34F8FB8
:1020700000BF00BF00BF00BF00BF00BFBFF36F8F36
:1020800000BF00BF00BF704750EF00E014ED00E05C
:10209000704700002DE9F0419CB080460C46154683
:1020A0001E4600273748006820F0040035490860C4
:1020B00000BF0020009033480C30006840F44040DE
:1020C00030490C3108600846006800F44040009038
:1020D00000BF00BF00BF2B480C30006800F4005068
:1020E000B0F5005FF7D101200190000402900020BC
:1020F0000490089002200A9002210B91CDF83480C0
:102100000C940E950F96002112910821119101A8AF
:10211000FFF774F907460FB100BFFEE73F201490A8
:102120000320159000201690082017904020199049
:1021300000011A904020189050201B90022114A8F2
:10214000FEF7CAFE07460FB100BFFEE70E48006863
:1021500040F080000C49086000BF0B48F430006874
:1021600040F002000849F43108600846006800F0B9
:102170000200009000BF00BFFEF742FA1CB0BDE8AD
:10218000F08100000C4802580044025810B5FEF7D8
:10219000A3FB10BD2048006840F470001E49086091
:1021A0001E48006840F001001C49086000201B49DF
:1021B000103108601948006819490840174908603B
:1021C0000020164918310860091D0860091D0860C3
:1021D000124928310860091D0860091D0860091DA1
:1021E0000860091D0860091D0860091D0860091DB7
:1021F00008600A48006820F4802008490860002030
:10220000064960310860012006490860C00602499D
:10221000803908607047000088ED00E000440258F3
:102220007FEDF6EA0881005190F8341001F00101C9
:1022300039B10168496821F40031826B11430268A9
:10224000516090F8341001F0020139B10168496819
:1022500021F48031C26B11430268516090F8341050
:1022600001F0040139B10168496821F48021026C50
:1022700011430268516090F8341001F0080139B13F
:102280000168496821F40041426C114302685160C1
:1022900090F8341001F0100139B10168896821F417
:1022A0008051826C11430268916090F8341001F003
:1022B000200139B10168896821F40051C26C1143D1
:1022C0000268916090F8341001F0400199B1016802
:1022D000496821F48011026D114302685160016D5B
:1022E000B1F5801F07D10168496821F4C001426D32
:1022F00011430268516090F8341001F0800139B147
:102300000168496821F40021826D1143026851601F
:10231000704738B5044600250020E067FEF7D6FA7E
:1023200005462068006800F0080008280CD16FF00E
:102330007E402B4600224FF400110090204600F012
:10234000A6FD08B1032038BD2068006800F0040035
:1023500004280CD16FF07E402B4600224FF4800100
:102360000090204600F093FD08B10320EBE7202009
:1023700084F8790084F87A0000BF002084F878009F
:1023800000BF00BFDFE770B50546AC6B0020A4F8C6
:102390006A00A4F862002046FFF7C1FB70BD016827
:1023A000096821F49071026811600168896821F060
:1023B000010102689160202180F87A10704710B501
:1023C00004462068006820F0400021680860202052
:1023D00084F879002046FFF7C7FD002010BD2DE9E5
:1023E000F0410446B4F86C7094F87A00222833D196
:1023F0002068858CA068B0F5805F09D1206938B964
:10240000666E05EA07003080606E801C606605E03D
:10241000F8B22840626E511C61661070B4F86A0010
:10242000401E80B2A4F86A00A0B92068006820F4B9
:102430009070216808602068806820F001002168A1
:102440008860202084F87A002046FFF749FD0020AC
:10245000BDE8F0810020FBE72068008B40F0080019
:10246000216808830220F3E72DE9F04F89B0044684
:1024700000254FF08008A946AA4600200890FA4996
:102480002068884201D1012000E0002000B100E076
:1024900000BFA06AB0F1005F00D100BF2169A06851
:1024A000084361690843E16940EA0105A06A054300
:1024B00020680068ED4908402843216808602068CA
:1024C000406820F44050E168084321684860A569ED
:1024D000E5492068884201D1012000E0002008B9C8
:1024E000206A0543A06AB0F1005F03D1D4E90B0173
:1024F0000843054320688068DD4908402843216877
:1025000088602068C06A20F00F00616A0843216873
:10251000C86200BFD7492068884224D1D6480068E5
:1025200000F03800182814D005DC48B108280AD07B
:10253000102817D10AE020280ED0282812D10EE04A
:102540004FF001080EE04FF004080BE04FF0400898
:1025500008E04FF0080805E04FF0100802E04FF0E7
:10256000200800BF17E1C549206888421DD1C24834
:10257000006800F00700062816D2DFE800F0030626
:10258000090C0F124FF000080EE04FF004080BE0AA
:102590004FF0400808E04FF0080805E04FF0100841
:1025A00002E04FF0200800BFF5E0B54920688842FE
:1025B0001DD1B148006800F00700062816D2DFE8F8
:1025C00000F00306090C0F124FF000080EE04FF068
:1025D00004080BE04FF0400808E04FF0080805E061
:1025E0004FF0100802E04FF0200800BFD3E0A549EB
:1025F000206888421DD1A048006800F00700062826
:1026000016D2DFE800F00306090C0F124FF00008A5
:102610000EE04FF004080BE04FF0400808E04FF0E8
:10262000080805E04FF0100802E04FF0200800BF56
:10263000B1E09549206888421DD18F48006800F0BC
:102640000700062816D2DFE800F00306090C0F1277
:102650004FF000080EE04FF004080BE04FF0400888
:1026600008E04FF0080805E04FF0100802E04FF0D6
:10267000200800BF8FE085492068884224D17E4829
:10268000006800F03800182814D005DC48B108288C
:102690000AD0102817D10AE020280ED0282812D1FD
:1026A0000EE04FF001080EE04FF004080BE04FF091
:1026B000400808E04FF0080805E04FF0100802E07D
:1026C0004FF0200800BF66E07149206888421DD1A4
:1026D0006948006800F00700062816D2DFE800F01D
:1026E0000306090C0F124FF000080EE04FF004082B
:1026F0000BE04FF0400808E04FF0080805E04FF00D
:10270000100802E04FF0200800BF44E06149206853
:1027100088421DD15848006800F00700062816D2EC
:10272000DFE800F00306090C0F124FF000080EE07E
:102730004FF004080BE04FF0400808E04FF00808A5
:1027400005E04FF0100802E04FF0200800BF22E043
:102750004549206888421ED14748001D006800F0A6
:102760000700062816D2DFE800F00306090C0F1256
:102770004FF002080EE04FF004080BE04FF0400865
:1027800008E04FF0080805E04FF0100802E04FF0B5
:10279000200800BF00BF00BF33492068884201D134
:1027A000012000E0002000285DD00025B8F1100FC6
:1027B00033D009DCB8F1020F10D0B8F1040F11D0FA
:1027C000B8F1080F2ED117E0B8F1200F27D0B8F1DB
:1027D000400F0CD0B8F1800F24D124E0FEF73AF975
:1027E000054623E005A8FEF74BF9069D1EE002A86A
:1027F000FEF75CFA039D19E01F4854380068C0F3E7
:10280000401040B11C4854380068C0F3C101224850
:1028100020FA01F500E0204D08E0204D06E04FF4DD
:10282000004503E000BF0120089000BF00BF002D5D
:102830000AD0606800EB4000A84203D8606800033B
:10284000A84202D201200890D4E2B8F1100F7CD047
:1028500026DCB8F1020F2DD0B8F1040F52D0B8F138
:10286000080F73D19EE03FE1000C0058F369FFCFE1
:10287000FFF4FF110010014054440258004400408E
:1028800000480040004C004000500040001401404F
:1028900000780040007C00400090D00300093D001B
:1028A000B8F1200F7DD0B8F1400F54D0B8F1800FAF
:1028B000D7D109E1FEF7CEF800270646FB49606A4A
:1028C00031F810C062463B4630463946FDF754FDAC
:1028D0004FF4807600220346A3FB060701FB067136
:1028E00003FB021361684908064671185A41CDE995
:1028F000001266683246002308460199FDF73CFD48
:102900000546E4E005A8FEF7BBF8DDF818C0E74986
:10291000606A31F810B05A46002360461946FDF748
:102920002BFD4FF4807C0022A0FB0C3B01FB0CB183
:1029300000FB0210616849085E1840EB0201D4F800
:1029400004C062460023304601E079E0BBE0FDF7B9
:1029500013FD0546BBE002A8FEF7A8F9DDF80CC0A0
:10296000D249606A31F810B05A46002360461946D1
:10297000FDF702FD4FF4807C0022A0FB0C3B01FB25
:102980000CB100FB0210616849085E1840EB0201BF
:10299000D4F804C0624600233046FDF7EDFC05463E
:1029A00095E06EE0C2480068C0F3401038B3C048FC
:1029B0000068C0F3C101BF4820FA01FCBB49606A4E
:1029C00031F810B05A46002360461946FDF7D4FC92
:1029D0004FF4807C0022A0FB0C3B01FB0CB100FB00
:1029E0000210616849085E1840EB0201D4F804C087
:1029F000624600233046FDF7BFFC05461FE0AB49A9
:102A0000606A31F810C062460023AA481946FDF7F3
:102A1000B3FC4FF4807C0022A0FB0C3B01FB0CB10B
:102A200000FB0210616849085E1840EB0201D4F80F
:102A300004C0624600233046FDF79EFC054646E092
:102A40009A49606A31F810C0624600239A481946D4
:102A5000FDF792FC4FF4807C0022A0FB0C3B01FBB5
:102A60000CB100FB0210616849085E1840EB0201DE
:102A7000D4F804C0624600233046FDF77DFC0546CD
:102A800025E08A49606A31F810C0624600234FF49D
:102A900000401946FDF770FC4FF4807C0022A0FB3B
:102AA0000C3B01FB0CB100FB0210616849085E1889
:102AB00040EB0201D4F804C0624600233046FDF723
:102AC0005BFC054603E000BF0120089000BF00BF8B
:102AD000B5F5407F05D3B5F5801F02D22068C560EB
:102AE00088E10120089085E1E069B0F5004F7CD1D4
:102AF000B8F1100F7AD00CDCB8F1000F13D0B8F198
:102B0000010F21D0B8F1040F2FD0B8F1080F6ED10A
:102B100051E0B8F1200F6BD0B8F1400F38D0B8F1C8
:102B2000800F64D197E0FEF71BFB604A616A32F8C0
:102B30001110B0FBF1F04000616800EB5100B0FBF8
:102B4000F1F01FFA80FA89E0FEF720FB574A616A2C
:102B500032F81110B0FBF1F04000616800EB510059
:102B6000B0FBF1F01FFA80FA78E005A8FDF788FFC6
:102B700006994E4A606A32F81000B1FBF0F040004E
:102B8000616800EB5100B0FBF1F01FFA80FA65E0DC
:102B900002A8FEF78BF80399444A606A32F81000E5
:102BA000B1FBF0F04000616800EB5100B0FBF1F0C8
:102BB0001FFA80FA52E03E480068C0F34010C0B1EE
:102BC0003B480068C0F3C1013A48C840374A616ACF
:102BD00032F81110B0FBF1F04000616800EB5100D9
:102BE000B0FBF1F01FFA80FA12E044E011E031E0AE
:102BF0001FE02E49606A31F810002E49B1FBF0F059
:102C00004000616800EB5100B0FBF1F01FFA80FA60
:102C100024E02649606A31F810002749B1FBF0F042
:102C20004000616800EB5100B0FBF1F01FFA80FA40
:102C300014E01E49606A31F810004FF40041B1FB06
:102C4000F0F04000616800EB5100B0FBF1F01FFABA
:102C500080FA03E000BF0120089000BF00BF4FF6DC
:102C6000F0700AEA0009CAF3420049EA0009206844
:102C7000C0F80C90BEE0B8F1100F7CD00CDCB8F1BD
:102C8000000F1BD0B8F1010F29D0B8F1040F37D0D5
:102C9000B8F1080F70D159E0B8F1200F6DD0B8F13C
:102CA000400F40D0B8F1800F66D19FE08A31000814
:102CB000004402580090D00300093D00FEF750FA8E
:102CC0004E4A616A32F81110B0FBF1F0616800EB16
:102CD0005100B0FBF1F080B22168C86089E0FEF7D6
:102CE00055FA464A616A32F81110B0FBF1F061689A
:102CF00000EB5100B0FBF1F080B22168C86078E0D1
:102D000005A8FDF7BDFE06993C4A606A32F810003E
:102D1000B1FBF0F0616800EB5100B0FBF1F080B264
:102D20002168C86065E002A8FDF7C0FF0399334A37
:102D3000606A32F81000B1FBF0F0616800EB5100FE
:102D4000B0FBF1F080B22168C86052E02C48006806
:102D5000C0F34010C0B12A480068C0F3C10129483F
:102D6000C840264A616A32F81110B0FBF1F0616880
:102D700000EB510002E017E037E025E0B0FBF1F096
:102D800080B22168C8600EE01C49606A31F810000A
:102D90001C49B1FBF0F0616800EB5100B0FBF1F0B1
:102DA00080B22168C86024E01449606A31F81000DC
:102DB0001549B1FBF0F0616800EB5100B0FBF1F098
:102DC00080B22168C86014E00C49606A31F81000D4
:102DD0004FF40041B1FBF0F0616800EB5100B0FB33
:102DE000F1F080B22168C86003E000BF01200890C4
:102DF00000BF00BF089809B0BDE8F08F8A31000815
:102E0000004402580090D00300093D00014691F8AB
:102E10007900212839D1B1F86200C8B90868006882
:102E200000F0005030B10868806820F400000B68A2
:102E3000986005E00868006820F080000B68186062
:102E40000868006840F040000B6818600020704778
:102E50008868B0F5805F0BD1086948B9CA6D1088E1
:102E6000C0F308000B681885C86D801CC86505E0B4
:102E7000CB6D581CC86518780B681885B1F86200CE
:102E8000401EA1F862000020E1E70220DFE72DE903
:102E9000F04104460D4617469846069E21E0701CF8
:102EA000F8B12EB1FDF712FDA0EB0800B04218D921
:102EB0002068006820F4D07021680860206880686D
:102EC00020F0010021688860202084F8790084F8CF
:102ED0007A0000BF002084F8780000BF0320BDE81E
:102EE000F0812068C0692840A84201D1012000E09B
:102EF0000020B842D3D00020F1E7000070B50024D4
:102F00000F4D1048FEF716FE00BF03E0641CAC42F4
:102F100000D904E00B48FEF703FE2028F6D100BFDD
:102F2000002403E0641CAC4200D906E001220649FB
:102F30000448FEF765FF0028F4D100BF70BD000013
:102F4000FFFF0100E80000241200002400BFFEE79C
:102F500002480068C0F30220704700000CED00E05A
:102F600010B5002804DB0A07130E054A135406E0C7
:102F70000A07140E034A00F00F031B1FD45410BDA0
:102F800000E400E018ED00E000BF704710B5044613
:102F90000420FEF795FD0148046010BD08000024E0
:102FA00030B50446002504E04FF47A7000F004F8D0
:102FB0006D1CA542F8D330BD70B5034600224FF01A
:102FC000E02675690D4E366803FB06F44FF0E026E7
:102FD000B16910E04FF0E026B06988420BD088421A
:102FE00002D20E1A324402E02E1A0E443244014636
:102FF000A24200D300E0EDE700BF70BD080000244E
:1030000000B587B000BF1148006840F080000F494C
:1030100008600846006800F08000019000BF00BF13
:10302000082002900A480390012004900320059094
:1030300002A90848FDF712FB002202210920FDF732
:103040009CFC0920FDF789FC07B000BDE044025854
:1030500000002111001C025800B587B000BF1248C3
:10306000006840F00200104908600846006800F05F
:103070000200019000BF00BF0320029001200390D6
:1030800004900320059002A90848FDF7E7FA012201
:1030900011460648FDF714FC012202210348FDF702
:1030A0000FFC07B000BD0000E044025800040258C5
:1030B000FDF710FAFDF71CFC042302220521A020D5
:1030C000FEF7E8FF4FF4C870FFF760FF4FF4E13000
:1030D00000F01AF8FFF7C0FFFFF792FF11E001229E
:1030E00002210848FDF7ECFB4FF4FA70FFF758FF98
:1030F000002202210348FDF7E3FB4FF4FA70FFF7CB
:103100004FFFECE70004025810B5044609480A498D
:1031100008600846446000218160C16001618161EE
:103120000C214161FEF7E4FD012204490248FEF74B
:1031300067FE10BD00100140E800002412000024CA
:103140004FF04070E1EE100A7047010002000400E9
:10315000060008000A000C0010002000400080005B
:103160000001010002000400060008000A000C0033
:10317000100020004000800000010000000001025B
:103180000304010203040607080901000200040009
:10319000060008000A000C0010002000400080001B
:1031A0000001010002000400060008000A000C00F3
:1031B000100020004000800000010000DC31000809
:1031C0000000002420000000D4020008FC310008A8
:1031D00020000024A8070000F00200080090D0039F
:1031E0000090D0030000000000000000000000007C
:0C31F000000000001000000001000000C2
:040000050800029954
:00000001FF
